{
  "contractName": "ProductCatalogue",
  "abi": [
    {
      "inputs": [],
      "payable": false,
      "stateMutability": "nonpayable",
      "type": "constructor"
    },
    {
      "constant": true,
      "inputs": [
        {
          "internalType": "address",
          "name": "",
          "type": "address"
        }
      ],
      "name": "RoleMap",
      "outputs": [
        {
          "internalType": "bool",
          "name": "exist",
          "type": "bool"
        },
        {
          "internalType": "bool",
          "name": "ProductCreator",
          "type": "bool"
        },
        {
          "internalType": "bool",
          "name": "ProductEndorser",
          "type": "bool"
        }
      ],
      "payable": false,
      "stateMutability": "view",
      "type": "function"
    },
    {
      "constant": true,
      "inputs": [
        {
          "internalType": "uint256",
          "name": "",
          "type": "uint256"
        }
      ],
      "name": "catalogue",
      "outputs": [
        {
          "internalType": "uint256",
          "name": "ProductID",
          "type": "uint256"
        },
        {
          "internalType": "string",
          "name": "name",
          "type": "string"
        },
        {
          "internalType": "string",
          "name": "description",
          "type": "string"
        },
        {
          "internalType": "address",
          "name": "creator",
          "type": "address"
        },
        {
          "internalType": "bool",
          "name": "endorsed",
          "type": "bool"
        }
      ],
      "payable": false,
      "stateMutability": "view",
      "type": "function"
    },
    {
      "constant": true,
      "inputs": [],
      "name": "curPID",
      "outputs": [
        {
          "internalType": "uint256",
          "name": "",
          "type": "uint256"
        }
      ],
      "payable": false,
      "stateMutability": "view",
      "type": "function"
    },
    {
      "constant": false,
      "inputs": [],
      "name": "GrantProductCreator",
      "outputs": [],
      "payable": false,
      "stateMutability": "nonpayable",
      "type": "function"
    },
    {
      "constant": false,
      "inputs": [],
      "name": "GrantProductEndorser",
      "outputs": [],
      "payable": false,
      "stateMutability": "nonpayable",
      "type": "function"
    },
    {
      "constant": true,
      "inputs": [],
      "name": "GetRole",
      "outputs": [
        {
          "internalType": "bool",
          "name": "",
          "type": "bool"
        },
        {
          "internalType": "bool",
          "name": "",
          "type": "bool"
        },
        {
          "internalType": "bool",
          "name": "",
          "type": "bool"
        }
      ],
      "payable": false,
      "stateMutability": "view",
      "type": "function"
    },
    {
      "constant": false,
      "inputs": [
        {
          "internalType": "string",
          "name": "name",
          "type": "string"
        },
        {
          "internalType": "string",
          "name": "description",
          "type": "string"
        }
      ],
      "name": "CreateProduct",
      "outputs": [
        {
          "internalType": "uint256",
          "name": "",
          "type": "uint256"
        }
      ],
      "payable": false,
      "stateMutability": "nonpayable",
      "type": "function"
    },
    {
      "constant": false,
      "inputs": [
        {
          "internalType": "uint256",
          "name": "pid",
          "type": "uint256"
        }
      ],
      "name": "EndorseProduct",
      "outputs": [],
      "payable": false,
      "stateMutability": "nonpayable",
      "type": "function"
    },
    {
      "constant": true,
      "inputs": [],
      "name": "ShowEndorsedProduct",
      "outputs": [
        {
          "internalType": "uint256[]",
          "name": "",
          "type": "uint256[]"
        }
      ],
      "payable": false,
      "stateMutability": "view",
      "type": "function"
    },
    {
      "constant": true,
      "inputs": [],
      "name": "ShowNonEndorsedProduct",
      "outputs": [
        {
          "internalType": "uint256[]",
          "name": "",
          "type": "uint256[]"
        }
      ],
      "payable": false,
      "stateMutability": "view",
      "type": "function"
    },
    {
      "constant": true,
      "inputs": [
        {
          "internalType": "uint256",
          "name": "pid",
          "type": "uint256"
        }
      ],
      "name": "QueryProduct",
      "outputs": [
        {
          "internalType": "uint256",
          "name": "",
          "type": "uint256"
        },
        {
          "internalType": "string",
          "name": "",
          "type": "string"
        },
        {
          "internalType": "string",
          "name": "",
          "type": "string"
        },
        {
          "internalType": "address",
          "name": "",
          "type": "address"
        },
        {
          "internalType": "bool",
          "name": "",
          "type": "bool"
        }
      ],
      "payable": false,
      "stateMutability": "view",
      "type": "function"
    }
  ],
  "bytecode": "0x6080604052600060035534801561001557600080fd5b5033600460006101000a81548173ffffffffffffffffffffffffffffffffffffffff021916908373ffffffffffffffffffffffffffffffffffffffff16021790555060006003819055506118aa8061006e6000396000f3fe608060405234801561001057600080fd5b50600436106100a95760003560e01c80637dc31d94116100715780637dc31d94146102c5578063803fe62f1461042b578063ad392f5d14610435578063e0db80a414610494578063e25092df14610506578063e45bebb314610534576100a9565b806304794e5b146100ae5780631e0d9560146100e657806338ea9fd11461023e5780635f8bc3a31461025c57806374cf906314610266575b600080fd5b6100b661068c565b60405180841515151581526020018315151515815260200182151515158152602001935050505060405180910390f35b610112600480360360208110156100fc57600080fd5b81019080803590602001909291905050506107a4565b6040518086815260200180602001806020018573ffffffffffffffffffffffffffffffffffffffff1673ffffffffffffffffffffffffffffffffffffffff16815260200184151515158152602001838103835287818151815260200191508051906020019080838360005b8381101561019857808201518184015260208101905061017d565b50505050905090810190601f1680156101c55780820380516001836020036101000a031916815260200191505b50838103825286818151815260200191508051906020019080838360005b838110156101fe5780820151818401526020810190506101e3565b50505050905090810190601f16801561022b5780820380516001836020036101000a031916815260200191505b5097505050505050505060405180910390f35b610246610937565b6040518082815260200191505060405180910390f35b61026461093d565b005b61026e610ac7565b6040518080602001828103825283818151815260200191508051906020019060200280838360005b838110156102b1578082015181840152602081019050610296565b505050509050019250505060405180910390f35b610415600480360360408110156102db57600080fd5b81019080803590602001906401000000008111156102f857600080fd5b82018360208201111561030a57600080fd5b8035906020019184600183028401116401000000008311171561032c57600080fd5b91908080601f016020809104026020016040519081016040528093929190818152602001838380828437600081840152601f19601f8201169050808301925050505050505091929192908035906020019064010000000081111561038f57600080fd5b8201836020820111156103a157600080fd5b803590602001918460018302840111640100000000831117156103c357600080fd5b91908080601f016020809104026020016040519081016040528093929190818152602001838380828437600081840152601f19601f820116905080830192505050505050509192919290505050610b1f565b6040518082815260200191505060405180910390f35b610433610d7f565b005b61043d610f09565b6040518080602001828103825283818151815260200191508051906020019060200280838360005b83811015610480578082015181840152602081019050610465565b505050509050019250505060405180910390f35b6104d6600480360360208110156104aa57600080fd5b81019080803573ffffffffffffffffffffffffffffffffffffffff169060200190929190505050610f61565b60405180841515151581526020018315151515815260200182151515158152602001935050505060405180910390f35b6105326004803603602081101561051c57600080fd5b8101908080359060200190929190505050610fb2565b005b6105606004803603602081101561054a57600080fd5b8101908080359060200190929190505050611346565b6040518086815260200180602001806020018573ffffffffffffffffffffffffffffffffffffffff1673ffffffffffffffffffffffffffffffffffffffff16815260200184151515158152602001838103835287818151815260200191508051906020019080838360005b838110156105e65780820151818401526020810190506105cb565b50505050905090810190601f1680156106135780820380516001836020036101000a031916815260200191505b50838103825286818151815260200191508051906020019080838360005b8381101561064c578082015181840152602081019050610631565b50505050905090810190601f1680156106795780820380516001836020036101000a031916815260200191505b5097505050505050505060405180910390f35b6000806000600560003373ffffffffffffffffffffffffffffffffffffffff1673ffffffffffffffffffffffffffffffffffffffff16815260200190815260200160002060000160009054906101000a900460ff1615610793576001600560003373ffffffffffffffffffffffffffffffffffffffff1673ffffffffffffffffffffffffffffffffffffffff16815260200190815260200160002060000160019054906101000a900460ff16600560003373ffffffffffffffffffffffffffffffffffffffff1673ffffffffffffffffffffffffffffffffffffffff16815260200190815260200160002060000160029054906101000a900460ff1692509250925061079f565b60008060009250925092505b909192565b6000602052806000526040600020600091509050806000015490806001018054600181600116156101000203166002900480601f0160208091040260200160405190810160405280929190818152602001828054600181600116156101000203166002900480156108565780601f1061082b57610100808354040283529160200191610856565b820191906000526020600020905b81548152906001019060200180831161083957829003601f168201915b505050505090806002018054600181600116156101000203166002900480601f0160208091040260200160405190810160405280929190818152602001828054600181600116156101000203166002900480156108f45780601f106108c9576101008083540402835291602001916108f4565b820191906000526020600020905b8154815290600101906020018083116108d757829003601f168201915b5050505050908060030160009054906101000a900473ffffffffffffffffffffffffffffffffffffffff16908060030160149054906101000a900460ff16905085565b60035481565b600560003373ffffffffffffffffffffffffffffffffffffffff1673ffffffffffffffffffffffffffffffffffffffff16815260200190815260200160002060000160009054906101000a900460ff16156109f2576001600560003373ffffffffffffffffffffffffffffffffffffffff1673ffffffffffffffffffffffffffffffffffffffff16815260200190815260200160002060000160026101000a81548160ff021916908315150217905550610ac5565b6109fa6116f2565b604051806060016040528060011515815260200160001515815260200160011515815250905080600560003373ffffffffffffffffffffffffffffffffffffffff1673ffffffffffffffffffffffffffffffffffffffff16815260200190815260200160002060008201518160000160006101000a81548160ff02191690831515021790555060208201518160000160016101000a81548160ff02191690831515021790555060408201518160000160026101000a81548160ff021916908315150217905550905050505b565b60606002805480602002602001604051908101604052809291908181526020018280548015610b1557602002820191906000526020600020905b815481526020019060010190808311610b01575b5050505050905090565b6000600560003373ffffffffffffffffffffffffffffffffffffffff1673ffffffffffffffffffffffffffffffffffffffff16815260200190815260200160002060000160009054906101000a900460ff1615610d2857600560003373ffffffffffffffffffffffffffffffffffffffff1673ffffffffffffffffffffffffffffffffffffffff16815260200190815260200160002060000160019054906101000a900460ff1615610d2757610bd3611719565b6040518060a0016040528060035481526020018581526020018481526020013373ffffffffffffffffffffffffffffffffffffffff168152602001600015158152509050806000806003548152602001908152602001600020600082015181600001556020820151816001019080519060200190610c52929190611760565b506040820151816002019080519060200190610c6f929190611760565b5060608201518160030160006101000a81548173ffffffffffffffffffffffffffffffffffffffff021916908373ffffffffffffffffffffffffffffffffffffffff16021790555060808201518160030160146101000a81548160ff021916908315150217905550905050600160035490806001815401808255809150509060018203906000526020600020016000909192909190915055506001600360008282540192505081905550600160035403915050610d79565b5b6040517f08c379a000000000000000000000000000000000000000000000000000000000815260040180806020018281038252603781526020018061183f6037913960400191505060405180910390fd5b92915050565b600560003373ffffffffffffffffffffffffffffffffffffffff1673ffffffffffffffffffffffffffffffffffffffff16815260200190815260200160002060000160009054906101000a900460ff1615610e34576001600560003373ffffffffffffffffffffffffffffffffffffffff1673ffffffffffffffffffffffffffffffffffffffff16815260200190815260200160002060000160016101000a81548160ff021916908315150217905550610f07565b610e3c6116f2565b604051806060016040528060011515815260200160011515815260200160001515815250905080600560003373ffffffffffffffffffffffffffffffffffffffff1673ffffffffffffffffffffffffffffffffffffffff16815260200190815260200160002060008201518160000160006101000a81548160ff02191690831515021790555060208201518160000160016101000a81548160ff02191690831515021790555060408201518160000160026101000a81548160ff021916908315150217905550905050505b565b60606001805480602002602001604051908101604052809291908181526020018280548015610f5757602002820191906000526020600020905b815481526020019060010190808311610f43575b5050505050905090565b60056020528060005260406000206000915090508060000160009054906101000a900460ff16908060000160019054906101000a900460ff16908060000160029054906101000a900460ff16905083565b600560003373ffffffffffffffffffffffffffffffffffffffff1673ffffffffffffffffffffffffffffffffffffffff16815260200190815260200160002060000160009054906101000a900460ff16156112f257600560003373ffffffffffffffffffffffffffffffffffffffff1673ffffffffffffffffffffffffffffffffffffffff16815260200190815260200160002060000160029054906101000a900460ff161561129c57611064611719565b6000808381526020019081526020016000206040518060a001604052908160008201548152602001600182018054600181600116156101000203166002900480601f0160208091040260200160405190810160405280929190818152602001828054600181600116156101000203166002900480156111245780601f106110f957610100808354040283529160200191611124565b820191906000526020600020905b81548152906001019060200180831161110757829003601f168201915b50505050508152602001600282018054600181600116156101000203166002900480601f0160208091040260200160405190810160405280929190818152602001828054600181600116156101000203166002900480156111c65780601f1061119b576101008083540402835291602001916111c6565b820191906000526020600020905b8154815290600101906020018083116111a957829003601f168201915b505050505081526020016003820160009054906101000a900473ffffffffffffffffffffffffffffffffffffffff1673ffffffffffffffffffffffffffffffffffffffff1673ffffffffffffffffffffffffffffffffffffffff1681526020016003820160149054906101000a900460ff16151515158152505090506001816080019015159081151581525050600061125e83611640565b905061126981611695565b600283908060018154018082558091505090600182039060005260206000200160009091929091909150555050506112ed565b6040517f08c379a00000000000000000000000000000000000000000000000000000000081526004018080602001828103825260398152602001806118066039913960400191505060405180910390fd5b611343565b6040517f08c379a00000000000000000000000000000000000000000000000000000000081526004018080602001828103825260398152602001806118066039913960400191505060405180910390fd5b50565b6000606080600080600073ffffffffffffffffffffffffffffffffffffffff1660008088815260200190815260200160002060030160009054906101000a900473ffffffffffffffffffffffffffffffffffffffff1673ffffffffffffffffffffffffffffffffffffffff1611156115c9576113c0611719565b6000808881526020019081526020016000206040518060a001604052908160008201548152602001600182018054600181600116156101000203166002900480601f0160208091040260200160405190810160405280929190818152602001828054600181600116156101000203166002900480156114805780601f1061145557610100808354040283529160200191611480565b820191906000526020600020905b81548152906001019060200180831161146357829003601f168201915b50505050508152602001600282018054600181600116156101000203166002900480601f0160208091040260200160405190810160405280929190818152602001828054600181600116156101000203166002900480156115225780601f106114f757610100808354040283529160200191611522565b820191906000526020600020905b81548152906001019060200180831161150557829003601f168201915b505050505081526020016003820160009054906101000a900473ffffffffffffffffffffffffffffffffffffffff1673ffffffffffffffffffffffffffffffffffffffff1673ffffffffffffffffffffffffffffffffffffffff1681526020016003820160149054906101000a900460ff16151515158152505090508681602001518260400151836060015184608001518393508292509550955095509550955050611637565b6040517f08c379a000000000000000000000000000000000000000000000000000000000815260040180806020018281038252601f8152602001807f4e6f2070726f64756374207769746820746869732070726f647563742049440081525060200191505060405180910390fd5b91939590929450565b600080600354905060008090505b60018054905081101561168b57836001828154811061166957fe5b9060005260206000200154141561167e578091505b808060010191505061164e565b5080915050919050565b600180808054905003815481106116a857fe5b9060005260206000200154600182815481106116c057fe5b906000526020600020018190555060018054806116d957fe5b6001900381819060005260206000200160009055905550565b60405180606001604052806000151581526020016000151581526020016000151581525090565b6040518060a00160405280600081526020016060815260200160608152602001600073ffffffffffffffffffffffffffffffffffffffff1681526020016000151581525090565b828054600181600116156101000203166002900490600052602060002090601f016020900481019282601f106117a157805160ff19168380011785556117cf565b828001600101855582156117cf579182015b828111156117ce5782518255916020019190600101906117b3565b5b5090506117dc91906117e0565b5090565b61180291905b808211156117fe5760008160009055506001016117e6565b5090565b9056fe4e6f2070726f6475637420697320656e646f72736564203b204e6f2050726f64756374456e646f7273657220726f6c6520697320666f756e6450726f64756374206973206e6f7420637265617465643b204e6f2050726f6475637443726561746f7220726f6c6520697320666f756e64a265627a7a72315820fc16b4b62566025559f85a46c3ca79992b52697856459a853f63ae68cb52b98f64736f6c63430005100032",
  "source": "pragma solidity ^0.5.0;\n\ncontract ProductCatalogue {\n    struct product {\n        uint256 ProductID;\n        string name;\n        string description;\n        address creator;\n        bool endorsed;\n    }\n\n    struct role {\n      bool exist;\n      bool ProductCreator;\n      bool ProductEndorser;\n    }\n    mapping(uint256 => product) public catalogue; // map of productID to the product details\n    uint256[] private unconfirmedList;  // the list of IDs of the non-endorsed products\n    uint256[] private confirmedList;    // the list of ID of the endorsed products\n    uint256 public curPID = 0;\n    address owner;  //owner of this smart contract\n\n    mapping(address => role) public RoleMap;\n\n\n    // you will need to introduce additional data structures and functions for Part II.\n\n    constructor() public {\n        owner = msg.sender;\n        curPID = 0;\n    }\n\n    function GrantProductCreator() public {\n      if (RoleMap[msg.sender].exist){\n          RoleMap[msg.sender].ProductCreator = true;\n      } else {\n        role memory r = role({exist: true, ProductCreator: true, ProductEndorser: false});\n        RoleMap[msg.sender] = r;\n      }\n    }\n\n    function GrantProductEndorser() public {\n      if (RoleMap[msg.sender].exist){\n          RoleMap[msg.sender].ProductEndorser = true;\n      } else {\n        role memory r = role({exist: true, ProductCreator: false, ProductEndorser: true});\n        RoleMap[msg.sender] = r;\n      }\n    }\n\n\n\n    function GetRole() public view returns (bool, bool, bool){\n      if (RoleMap[msg.sender].exist){\n          return ( true, RoleMap[msg.sender].ProductCreator, RoleMap[msg.sender].ProductEndorser);\n      } else {\n          return (false, false, false);\n      }\n    }\n\n    function CreateProduct(string memory name, string memory description)\n        public\n        returns (uint256) // returns the productID of the newly created product\n    {\n        //For part I, anynoe can call this function to create a new product\n        //For part II, only users with the role of creator can create products\n\n        if (RoleMap[msg.sender].exist){\n          if (RoleMap[msg.sender].ProductCreator){\n            product memory p = product({ProductID: curPID, name: name, description: description, creator: msg.sender, endorsed: false});\n            catalogue[curPID] = p;\n            unconfirmedList.push(curPID);\n            curPID += 1;\n            return (curPID-1);\n          }\n        }\n\n        revert(\"Product is not created; No ProductCreator role is found\");\n    }\n\n    function EndorseProduct(uint256 pid) public {\n        // The input is the product ID to be endorsed\n        // For part I, anyone can call this function\n        // For part II, only users with the role of endorser can endorse products\n\n\n\n        if (RoleMap[msg.sender].exist){\n          if (RoleMap[msg.sender].ProductEndorser){\n            product memory p = catalogue[pid];\n            p.endorsed = true;\n\n            uint256 endorsedIndex = locate(pid);\n            removeData(endorsedIndex);\n            confirmedList.push(pid);\n          } else {\n            revert(\"No product is endorsed ; No ProductEndorser role is found\");\n          }\n        } else {\n                      revert(\"No product is endorsed ; No ProductEndorser role is found\");\n        }\n\n\n    }\n\n    function ShowEndorsedProduct() public view returns (uint256[] memory) {\n        return confirmedList;   // no need to change this function\n    }\n\n    function ShowNonEndorsedProduct() public view returns (uint256[] memory) {\n        return unconfirmedList; // no need to change this function\n    }\n\n    function QueryProduct(uint256 pid)\n        public\n        view\n        returns (\n            uint256,\n            string memory,\n            string memory,\n            address,\n            bool\n        )\n    {\n        // on input a product ID, returns the details of this product.\n        if (catalogue[pid].creator > address(0)){\n          product memory p = catalogue[pid];\n          return (pid, p.name, p.description, p.creator, p.endorsed);\n        } else {\n          revert(\"No product with this product ID\");\n        }\n\n    }\n\n    function locate(uint256 pid) private view returns (uint256) {   //helper function, find of index of the productID in the list of non-endorsed products. no need to change this function\n        uint256 index = curPID;\n        for (uint256 i = 0; i < unconfirmedList.length; i++) {\n            if (unconfirmedList[i] == pid) index = i;\n        }\n        return index;\n    }\n\n    function removeData(uint256 index) private {    //helper function, remove an element from the list of non-endorsed product. Use when the product is endorsed. no need to change this function\n        unconfirmedList[index] = unconfirmedList[unconfirmedList.length - 1];\n        unconfirmedList.pop();\n    }\n\n}\n",
  "sourcePath": "/home/ubuntu/pet-shop-tutorial/contracts/ProductCatalogue.sol",
  "compiler": {
    "name": "solc",
    "version": "0.5.16+commit.9c3226ce.Emscripten.clang"
  },
  "schemaVersion": "3.3.4",
  "updatedAt": "2021-04-07T10:34:58.715Z",
  "devdoc": {
    "methods": {}
  },
  "userdoc": {
    "methods": {}
  }
}